{
  "address": "0x7E3F10F2B706f1ce993Fa75FBC9e401CaE0941A8",
  "abi": [
    {
      "inputs": [
        {
          "internalType": "address",
          "name": "_owner",
          "type": "address"
        }
      ],
      "stateMutability": "nonpayable",
      "type": "constructor"
    },
    {
      "anonymous": false,
      "inputs": [
        {
          "indexed": true,
          "internalType": "address",
          "name": "owner",
          "type": "address"
        },
        {
          "indexed": true,
          "internalType": "address",
          "name": "spender",
          "type": "address"
        },
        {
          "indexed": true,
          "internalType": "uint256",
          "name": "id",
          "type": "uint256"
        }
      ],
      "name": "Approval",
      "type": "event"
    },
    {
      "anonymous": false,
      "inputs": [
        {
          "indexed": true,
          "internalType": "address",
          "name": "owner",
          "type": "address"
        },
        {
          "indexed": true,
          "internalType": "address",
          "name": "operator",
          "type": "address"
        },
        {
          "indexed": false,
          "internalType": "bool",
          "name": "approved",
          "type": "bool"
        }
      ],
      "name": "ApprovalForAll",
      "type": "event"
    },
    {
      "anonymous": false,
      "inputs": [
        {
          "indexed": true,
          "internalType": "address",
          "name": "user",
          "type": "address"
        },
        {
          "indexed": true,
          "internalType": "address",
          "name": "newOwner",
          "type": "address"
        }
      ],
      "name": "OwnerUpdated",
      "type": "event"
    },
    {
      "anonymous": false,
      "inputs": [
        {
          "indexed": true,
          "internalType": "address",
          "name": "from",
          "type": "address"
        },
        {
          "indexed": true,
          "internalType": "address",
          "name": "to",
          "type": "address"
        },
        {
          "indexed": true,
          "internalType": "uint256",
          "name": "id",
          "type": "uint256"
        }
      ],
      "name": "Transfer",
      "type": "event"
    },
    {
      "inputs": [
        {
          "internalType": "address",
          "name": "spender",
          "type": "address"
        },
        {
          "internalType": "uint256",
          "name": "id",
          "type": "uint256"
        }
      ],
      "name": "approve",
      "outputs": [],
      "stateMutability": "nonpayable",
      "type": "function"
    },
    {
      "inputs": [
        {
          "internalType": "address",
          "name": "owner",
          "type": "address"
        }
      ],
      "name": "balanceOf",
      "outputs": [
        {
          "internalType": "uint256",
          "name": "",
          "type": "uint256"
        }
      ],
      "stateMutability": "view",
      "type": "function"
    },
    {
      "inputs": [
        {
          "internalType": "uint256",
          "name": "",
          "type": "uint256"
        }
      ],
      "name": "getApproved",
      "outputs": [
        {
          "internalType": "address",
          "name": "",
          "type": "address"
        }
      ],
      "stateMutability": "view",
      "type": "function"
    },
    {
      "inputs": [
        {
          "internalType": "address",
          "name": "",
          "type": "address"
        },
        {
          "internalType": "address",
          "name": "",
          "type": "address"
        }
      ],
      "name": "isApprovedForAll",
      "outputs": [
        {
          "internalType": "bool",
          "name": "",
          "type": "bool"
        }
      ],
      "stateMutability": "view",
      "type": "function"
    },
    {
      "inputs": [],
      "name": "mint",
      "outputs": [
        {
          "internalType": "uint256",
          "name": "",
          "type": "uint256"
        }
      ],
      "stateMutability": "payable",
      "type": "function"
    },
    {
      "inputs": [
        {
          "internalType": "uint256",
          "name": "_quantity",
          "type": "uint256"
        }
      ],
      "name": "mint",
      "outputs": [
        {
          "internalType": "uint256[]",
          "name": "",
          "type": "uint256[]"
        }
      ],
      "stateMutability": "payable",
      "type": "function"
    },
    {
      "inputs": [],
      "name": "name",
      "outputs": [
        {
          "internalType": "string",
          "name": "",
          "type": "string"
        }
      ],
      "stateMutability": "view",
      "type": "function"
    },
    {
      "inputs": [],
      "name": "owner",
      "outputs": [
        {
          "internalType": "address",
          "name": "",
          "type": "address"
        }
      ],
      "stateMutability": "view",
      "type": "function"
    },
    {
      "inputs": [
        {
          "internalType": "uint256",
          "name": "id",
          "type": "uint256"
        }
      ],
      "name": "ownerOf",
      "outputs": [
        {
          "internalType": "address",
          "name": "owner",
          "type": "address"
        }
      ],
      "stateMutability": "view",
      "type": "function"
    },
    {
      "inputs": [
        {
          "internalType": "address",
          "name": "from",
          "type": "address"
        },
        {
          "internalType": "address",
          "name": "to",
          "type": "address"
        },
        {
          "internalType": "uint256",
          "name": "id",
          "type": "uint256"
        }
      ],
      "name": "safeTransferFrom",
      "outputs": [],
      "stateMutability": "nonpayable",
      "type": "function"
    },
    {
      "inputs": [
        {
          "internalType": "address",
          "name": "from",
          "type": "address"
        },
        {
          "internalType": "address",
          "name": "to",
          "type": "address"
        },
        {
          "internalType": "uint256",
          "name": "id",
          "type": "uint256"
        },
        {
          "internalType": "bytes",
          "name": "data",
          "type": "bytes"
        }
      ],
      "name": "safeTransferFrom",
      "outputs": [],
      "stateMutability": "nonpayable",
      "type": "function"
    },
    {
      "inputs": [
        {
          "internalType": "address",
          "name": "operator",
          "type": "address"
        },
        {
          "internalType": "bool",
          "name": "approved",
          "type": "bool"
        }
      ],
      "name": "setApprovalForAll",
      "outputs": [],
      "stateMutability": "nonpayable",
      "type": "function"
    },
    {
      "inputs": [
        {
          "internalType": "address",
          "name": "newOwner",
          "type": "address"
        }
      ],
      "name": "setOwner",
      "outputs": [],
      "stateMutability": "nonpayable",
      "type": "function"
    },
    {
      "inputs": [
        {
          "internalType": "bytes4",
          "name": "interfaceId",
          "type": "bytes4"
        }
      ],
      "name": "supportsInterface",
      "outputs": [
        {
          "internalType": "bool",
          "name": "",
          "type": "bool"
        }
      ],
      "stateMutability": "view",
      "type": "function"
    },
    {
      "inputs": [],
      "name": "symbol",
      "outputs": [
        {
          "internalType": "string",
          "name": "",
          "type": "string"
        }
      ],
      "stateMutability": "view",
      "type": "function"
    },
    {
      "inputs": [
        {
          "internalType": "uint256",
          "name": "tokenId",
          "type": "uint256"
        }
      ],
      "name": "tokenURI",
      "outputs": [
        {
          "internalType": "string",
          "name": "",
          "type": "string"
        }
      ],
      "stateMutability": "view",
      "type": "function"
    },
    {
      "inputs": [],
      "name": "totalSupply",
      "outputs": [
        {
          "internalType": "uint8",
          "name": "",
          "type": "uint8"
        }
      ],
      "stateMutability": "view",
      "type": "function"
    },
    {
      "inputs": [
        {
          "internalType": "address",
          "name": "from",
          "type": "address"
        },
        {
          "internalType": "address",
          "name": "to",
          "type": "address"
        },
        {
          "internalType": "uint256",
          "name": "id",
          "type": "uint256"
        }
      ],
      "name": "transferFrom",
      "outputs": [],
      "stateMutability": "nonpayable",
      "type": "function"
    },
    {
      "inputs": [],
      "name": "withdraw",
      "outputs": [],
      "stateMutability": "nonpayable",
      "type": "function"
    }
  ],
  "transactionHash": "0x0fbfe711568b2296f08e1310b49562b10f8ccf038b24332e9083b4913041d293",
  "args": [
    "0x622F73efA07Efd4814Aa9695a1EaDCF8644b1B1F"
  ],
  "numDeployments": 1,
  "solcInputHash": "e972c176bacb81954d83225a359e379d",
  "bytecode": "0x60806040523480156200001157600080fd5b5060405162002f3d38038062002f3d833981810160405281019062000037919062000296565b806040518060400160405280600781526020017f4d617276656c73000000000000000000000000000000000000000000000000008152506040518060400160405280600481526020017f4d415256000000000000000000000000000000000000000000000000000000008152508160009080519060200190620000bc9291906200017c565b508060019080519060200190620000d59291906200017c565b50505080600660006101000a81548173ffffffffffffffffffffffffffffffffffffffff021916908373ffffffffffffffffffffffffffffffffffffffff1602179055508073ffffffffffffffffffffffffffffffffffffffff16600073ffffffffffffffffffffffffffffffffffffffff167f8292fce18fa69edf4db7b94ea2e58241df0ae57f97e0a6c9b29067028bf92d7660405160405180910390a350506200032d565b8280546200018a90620002f7565b90600052602060002090601f016020900481019282620001ae5760008555620001fa565b82601f10620001c957805160ff1916838001178555620001fa565b82800160010185558215620001fa579182015b82811115620001f9578251825591602001919060010190620001dc565b5b5090506200020991906200020d565b5090565b5b80821115620002285760008160009055506001016200020e565b5090565b600080fd5b600073ffffffffffffffffffffffffffffffffffffffff82169050919050565b60006200025e8262000231565b9050919050565b620002708162000251565b81146200027c57600080fd5b50565b600081519050620002908162000265565b92915050565b600060208284031215620002af57620002ae6200022c565b5b6000620002bf848285016200027f565b91505092915050565b7f4e487b7100000000000000000000000000000000000000000000000000000000600052602260045260246000fd5b600060028204905060018216806200031057607f821691505b60208210811415620003275762000326620002c8565b5b50919050565b612c00806200033d6000396000f3fe6080604052600436106101145760003560e01c806342842e0e116100a0578063a0712d6811610064578063a0712d6814610392578063a22cb465146103c2578063b88d4fde146103eb578063c87b56dd14610414578063e985e9c51461045157610114565b806342842e0e146102995780636352211e146102c257806370a08231146102ff5780638da5cb5b1461033c57806395d89b411461036757610114565b80631249c58b116100e75780631249c58b146101e757806313af40351461020557806318160ddd1461022e57806323b872dd146102595780633ccfd60b1461028257610114565b806301ffc9a71461011957806306fdde0314610156578063081812fc14610181578063095ea7b3146101be575b600080fd5b34801561012557600080fd5b50610140600480360381019061013b9190611b1d565b61048e565b60405161014d9190611b65565b60405180910390f35b34801561016257600080fd5b5061016b610520565b6040516101789190611c19565b60405180910390f35b34801561018d57600080fd5b506101a860048036038101906101a39190611c71565b6105ae565b6040516101b59190611cdf565b60405180910390f35b3480156101ca57600080fd5b506101e560048036038101906101e09190611d26565b6105e1565b005b6101ef6107ca565b6040516101fc9190611d75565b60405180910390f35b34801561021157600080fd5b5061022c60048036038101906102279190611d90565b6107fb565b005b34801561023a57600080fd5b50610243610929565b6040516102509190611dd9565b60405180910390f35b34801561026557600080fd5b50610280600480360381019061027b9190611df4565b610940565b005b34801561028e57600080fd5b50610297610d40565b005b3480156102a557600080fd5b506102c060048036038101906102bb9190611df4565b610eeb565b005b3480156102ce57600080fd5b506102e960048036038101906102e49190611c71565b611023565b6040516102f69190611cdf565b60405180910390f35b34801561030b57600080fd5b5061032660048036038101906103219190611d90565b6110cf565b6040516103339190611d75565b60405180910390f35b34801561034857600080fd5b50610351611187565b60405161035e9190611cdf565b60405180910390f35b34801561037357600080fd5b5061037c6111ad565b6040516103899190611c19565b60405180910390f35b6103ac60048036038101906103a79190611c71565b61123b565b6040516103b99190611f05565b60405180910390f35b3480156103ce57600080fd5b506103e960048036038101906103e49190611f53565b61140b565b005b3480156103f757600080fd5b50610412600480360381019061040d9190611ff8565b611508565b005b34801561042057600080fd5b5061043b60048036038101906104369190611c71565b611646565b6040516104489190611c19565b60405180910390f35b34801561045d57600080fd5b5061047860048036038101906104739190612080565b6116f8565b6040516104859190611b65565b60405180910390f35b60006301ffc9a760e01b827bffffffffffffffffffffffffffffffffffffffffffffffffffffffff191614806104e957506380ac58cd60e01b827bffffffffffffffffffffffffffffffffffffffffffffffffffffffff1916145b806105195750635b5e139f60e01b827bffffffffffffffffffffffffffffffffffffffffffffffffffffffff1916145b9050919050565b6000805461052d906120ef565b80601f0160208091040260200160405190810160405280929190818152602001828054610559906120ef565b80156105a65780601f1061057b576101008083540402835291602001916105a6565b820191906000526020600020905b81548152906001019060200180831161058957829003601f168201915b505050505081565b60046020528060005260406000206000915054906101000a900473ffffffffffffffffffffffffffffffffffffffff1681565b60006002600083815260200190815260200160002060009054906101000a900473ffffffffffffffffffffffffffffffffffffffff1690508073ffffffffffffffffffffffffffffffffffffffff163373ffffffffffffffffffffffffffffffffffffffff1614806106d95750600560008273ffffffffffffffffffffffffffffffffffffffff1673ffffffffffffffffffffffffffffffffffffffff16815260200190815260200160002060003373ffffffffffffffffffffffffffffffffffffffff1673ffffffffffffffffffffffffffffffffffffffff16815260200190815260200160002060009054906101000a900460ff165b610718576040517f08c379a000000000000000000000000000000000000000000000000000000000815260040161070f9061216d565b60405180910390fd5b826004600084815260200190815260200160002060006101000a81548173ffffffffffffffffffffffffffffffffffffffff021916908373ffffffffffffffffffffffffffffffffffffffff160217905550818373ffffffffffffffffffffffffffffffffffffffff168273ffffffffffffffffffffffffffffffffffffffff167f8c5be1e5ebec7d5bd14f71427d1e84f3dd0314c0f7b2291e5b200ac8c7c3b92560405160405180910390a4505050565b6000806107d7600161123b565b9050806000815181106107ed576107ec61218d565b5b602002602001015191505090565b600660009054906101000a900473ffffffffffffffffffffffffffffffffffffffff1673ffffffffffffffffffffffffffffffffffffffff163373ffffffffffffffffffffffffffffffffffffffff161461088b576040517f08c379a000000000000000000000000000000000000000000000000000000000815260040161088290612208565b60405180910390fd5b80600660006101000a81548173ffffffffffffffffffffffffffffffffffffffff021916908373ffffffffffffffffffffffffffffffffffffffff1602179055508073ffffffffffffffffffffffffffffffffffffffff163373ffffffffffffffffffffffffffffffffffffffff167f8292fce18fa69edf4db7b94ea2e58241df0ae57f97e0a6c9b29067028bf92d7660405160405180910390a350565b6000600660149054906101000a900460ff16905090565b6002600082815260200190815260200160002060009054906101000a900473ffffffffffffffffffffffffffffffffffffffff1673ffffffffffffffffffffffffffffffffffffffff168373ffffffffffffffffffffffffffffffffffffffff16146109e1576040517f08c379a00000000000000000000000000000000000000000000000000000000081526004016109d890612274565b60405180910390fd5b600073ffffffffffffffffffffffffffffffffffffffff168273ffffffffffffffffffffffffffffffffffffffff161415610a51576040517f08c379a0000000000000000000000000000000000000000000000000000000008152600401610a48906122e0565b60405180910390fd5b8273ffffffffffffffffffffffffffffffffffffffff163373ffffffffffffffffffffffffffffffffffffffff161480610b115750600560008473ffffffffffffffffffffffffffffffffffffffff1673ffffffffffffffffffffffffffffffffffffffff16815260200190815260200160002060003373ffffffffffffffffffffffffffffffffffffffff1673ffffffffffffffffffffffffffffffffffffffff16815260200190815260200160002060009054906101000a900460ff165b80610b7a57506004600082815260200190815260200160002060009054906101000a900473ffffffffffffffffffffffffffffffffffffffff1673ffffffffffffffffffffffffffffffffffffffff163373ffffffffffffffffffffffffffffffffffffffff16145b610bb9576040517f08c379a0000000000000000000000000000000000000000000000000000000008152600401610bb09061216d565b60405180910390fd5b600360008473ffffffffffffffffffffffffffffffffffffffff1673ffffffffffffffffffffffffffffffffffffffff1681526020019081526020016000206000815480929190600190039190505550600360008373ffffffffffffffffffffffffffffffffffffffff1673ffffffffffffffffffffffffffffffffffffffff16815260200190815260200160002060008154809291906001019190505550816002600083815260200190815260200160002060006101000a81548173ffffffffffffffffffffffffffffffffffffffff021916908373ffffffffffffffffffffffffffffffffffffffff1602179055506004600082815260200190815260200160002060006101000a81549073ffffffffffffffffffffffffffffffffffffffff0219169055808273ffffffffffffffffffffffffffffffffffffffff168473ffffffffffffffffffffffffffffffffffffffff167fddf252ad1be2c89b69c2b068fc378daa952ba7f163c4a11628f55a4df523b3ef60405160405180910390a4505050565b600660009054906101000a900473ffffffffffffffffffffffffffffffffffffffff1673ffffffffffffffffffffffffffffffffffffffff163373ffffffffffffffffffffffffffffffffffffffff1614610dd0576040517f08c379a0000000000000000000000000000000000000000000000000000000008152600401610dc790612208565b60405180910390fd5b60004790506000811415610e19576040517f08c379a0000000000000000000000000000000000000000000000000000000008152600401610e109061234c565b60405180910390fd5b6000600660009054906101000a900473ffffffffffffffffffffffffffffffffffffffff1673ffffffffffffffffffffffffffffffffffffffff1682604051610e619061239d565b60006040518083038185875af1925050503d8060008114610e9e576040519150601f19603f3d011682016040523d82523d6000602084013e610ea3565b606091505b5050905080610ee7576040517f08c379a0000000000000000000000000000000000000000000000000000000008152600401610ede906123fe565b60405180910390fd5b5050565b610ef6838383610940565b60008273ffffffffffffffffffffffffffffffffffffffff163b1480610fdf575063150b7a0260e01b7bffffffffffffffffffffffffffffffffffffffffffffffffffffffff19168273ffffffffffffffffffffffffffffffffffffffff1663150b7a023386856040518463ffffffff1660e01b8152600401610f7b93929190612452565b6020604051808303816000875af1158015610f9a573d6000803e3d6000fd5b505050506040513d601f19601f82011682018060405250810190610fbe91906124b1565b7bffffffffffffffffffffffffffffffffffffffffffffffffffffffff1916145b61101e576040517f08c379a00000000000000000000000000000000000000000000000000000000081526004016110159061252a565b60405180910390fd5b505050565b60008073ffffffffffffffffffffffffffffffffffffffff166002600084815260200190815260200160002060009054906101000a900473ffffffffffffffffffffffffffffffffffffffff1691508173ffffffffffffffffffffffffffffffffffffffff1614156110ca576040517f08c379a00000000000000000000000000000000000000000000000000000000081526004016110c190612596565b60405180910390fd5b919050565b60008073ffffffffffffffffffffffffffffffffffffffff168273ffffffffffffffffffffffffffffffffffffffff161415611140576040517f08c379a000000000000000000000000000000000000000000000000000000000815260040161113790612602565b60405180910390fd5b600360008373ffffffffffffffffffffffffffffffffffffffff1673ffffffffffffffffffffffffffffffffffffffff168152602001908152602001600020549050919050565b600660009054906101000a900473ffffffffffffffffffffffffffffffffffffffff1681565b600180546111ba906120ef565b80601f01602080910402602001604051908101604052809291908181526020018280546111e6906120ef565b80156112335780601f1061120857610100808354040283529160200191611233565b820191906000526020600020905b81548152906001019060200180831161121657829003601f168201915b505050505081565b6060606460ff16600660149054906101000a900460ff1660ff1610611295576040517f08c379a000000000000000000000000000000000000000000000000000000000815260040161128c9061266e565b60405180910390fd5b34662386f26fc10000836112a991906126bd565b146112e9576040517f08c379a00000000000000000000000000000000000000000000000000000000081526004016112e090612763565b60405180910390fd5b600582111561132d576040517f08c379a0000000000000000000000000000000000000000000000000000000008152600401611324906127cf565b60405180910390fd5b60008267ffffffffffffffff811115611349576113486127ef565b5b6040519080825280602002602001820160405280156113775781602001602082028036833780820191505090505b50905060005b838110156114015760006006601481819054906101000a900460ff16809291906113a69061281e565b91906101000a81548160ff021916908360ff16021790555060ff1690506113cd3382611727565b808383815181106113e1576113e061218d565b5b6020026020010181815250505080806113f990612848565b91505061137d565b5080915050919050565b80600560003373ffffffffffffffffffffffffffffffffffffffff1673ffffffffffffffffffffffffffffffffffffffff16815260200190815260200160002060008473ffffffffffffffffffffffffffffffffffffffff1673ffffffffffffffffffffffffffffffffffffffff16815260200190815260200160002060006101000a81548160ff0219169083151502179055508173ffffffffffffffffffffffffffffffffffffffff163373ffffffffffffffffffffffffffffffffffffffff167f17307eab39ab6107e8899845ad3d59bd9653f200f220920489ca2b5937696c31836040516114fc9190611b65565b60405180910390a35050565b611513858585610940565b60008473ffffffffffffffffffffffffffffffffffffffff163b1480611600575063150b7a0260e01b7bffffffffffffffffffffffffffffffffffffffffffffffffffffffff19168473ffffffffffffffffffffffffffffffffffffffff1663150b7a0233888787876040518663ffffffff1660e01b815260040161159c9594939291906128cd565b6020604051808303816000875af11580156115bb573d6000803e3d6000fd5b505050506040513d601f19601f820116820180604052508101906115df91906124b1565b7bffffffffffffffffffffffffffffffffffffffffffffffffffffffff1916145b61163f576040517f08c379a00000000000000000000000000000000000000000000000000000000081526004016116369061252a565b60405180910390fd5b5050505050565b6060600073ffffffffffffffffffffffffffffffffffffffff1661166983611023565b73ffffffffffffffffffffffffffffffffffffffff1614156116c0576040517f08c379a00000000000000000000000000000000000000000000000000000000081526004016116b790612967565b60405180910390fd5b6116c861193a565b6116d18361195a565b6040516020016116e29291906129c3565b6040516020818303038152906040529050919050565b60056020528160005260406000206020528060005260406000206000915091509054906101000a900460ff1681565b600073ffffffffffffffffffffffffffffffffffffffff168273ffffffffffffffffffffffffffffffffffffffff161415611797576040517f08c379a000000000000000000000000000000000000000000000000000000000815260040161178e906122e0565b60405180910390fd5b600073ffffffffffffffffffffffffffffffffffffffff166002600083815260200190815260200160002060009054906101000a900473ffffffffffffffffffffffffffffffffffffffff1673ffffffffffffffffffffffffffffffffffffffff1614611839576040517f08c379a000000000000000000000000000000000000000000000000000000000815260040161183090612a33565b60405180910390fd5b600360008373ffffffffffffffffffffffffffffffffffffffff1673ffffffffffffffffffffffffffffffffffffffff16815260200190815260200160002060008154809291906001019190505550816002600083815260200190815260200160002060006101000a81548173ffffffffffffffffffffffffffffffffffffffff021916908373ffffffffffffffffffffffffffffffffffffffff160217905550808273ffffffffffffffffffffffffffffffffffffffff16600073ffffffffffffffffffffffffffffffffffffffff167fddf252ad1be2c89b69c2b068fc378daa952ba7f163c4a11628f55a4df523b3ef60405160405180910390a45050565b60606040518060800160405280605c8152602001612b6f605c9139905090565b606060008214156119a2576040518060400160405280600181526020017f30000000000000000000000000000000000000000000000000000000000000008152509050611ab6565b600082905060005b600082146119d45780806119bd90612848565b915050600a826119cd9190612a82565b91506119aa565b60008167ffffffffffffffff8111156119f0576119ef6127ef565b5b6040519080825280601f01601f191660200182016040528015611a225781602001600182028036833780820191505090505b5090505b60008514611aaf57600182611a3b9190612ab3565b9150600a85611a4a9190612ae7565b6030611a569190612b18565b60f81b818381518110611a6c57611a6b61218d565b5b60200101907effffffffffffffffffffffffffffffffffffffffffffffffffffffffffffff1916908160001a905350600a85611aa89190612a82565b9450611a26565b8093505050505b919050565b600080fd5b600080fd5b60007fffffffff0000000000000000000000000000000000000000000000000000000082169050919050565b611afa81611ac5565b8114611b0557600080fd5b50565b600081359050611b1781611af1565b92915050565b600060208284031215611b3357611b32611abb565b5b6000611b4184828501611b08565b91505092915050565b60008115159050919050565b611b5f81611b4a565b82525050565b6000602082019050611b7a6000830184611b56565b92915050565b600081519050919050565b600082825260208201905092915050565b60005b83811015611bba578082015181840152602081019050611b9f565b83811115611bc9576000848401525b50505050565b6000601f19601f8301169050919050565b6000611beb82611b80565b611bf58185611b8b565b9350611c05818560208601611b9c565b611c0e81611bcf565b840191505092915050565b60006020820190508181036000830152611c338184611be0565b905092915050565b6000819050919050565b611c4e81611c3b565b8114611c5957600080fd5b50565b600081359050611c6b81611c45565b92915050565b600060208284031215611c8757611c86611abb565b5b6000611c9584828501611c5c565b91505092915050565b600073ffffffffffffffffffffffffffffffffffffffff82169050919050565b6000611cc982611c9e565b9050919050565b611cd981611cbe565b82525050565b6000602082019050611cf46000830184611cd0565b92915050565b611d0381611cbe565b8114611d0e57600080fd5b50565b600081359050611d2081611cfa565b92915050565b60008060408385031215611d3d57611d3c611abb565b5b6000611d4b85828601611d11565b9250506020611d5c85828601611c5c565b9150509250929050565b611d6f81611c3b565b82525050565b6000602082019050611d8a6000830184611d66565b92915050565b600060208284031215611da657611da5611abb565b5b6000611db484828501611d11565b91505092915050565b600060ff82169050919050565b611dd381611dbd565b82525050565b6000602082019050611dee6000830184611dca565b92915050565b600080600060608486031215611e0d57611e0c611abb565b5b6000611e1b86828701611d11565b9350506020611e2c86828701611d11565b9250506040611e3d86828701611c5c565b9150509250925092565b600081519050919050565b600082825260208201905092915050565b6000819050602082019050919050565b611e7c81611c3b565b82525050565b6000611e8e8383611e73565b60208301905092915050565b6000602082019050919050565b6000611eb282611e47565b611ebc8185611e52565b9350611ec783611e63565b8060005b83811015611ef8578151611edf8882611e82565b9750611eea83611e9a565b925050600181019050611ecb565b5085935050505092915050565b60006020820190508181036000830152611f1f8184611ea7565b905092915050565b611f3081611b4a565b8114611f3b57600080fd5b50565b600081359050611f4d81611f27565b92915050565b60008060408385031215611f6a57611f69611abb565b5b6000611f7885828601611d11565b9250506020611f8985828601611f3e565b9150509250929050565b600080fd5b600080fd5b600080fd5b60008083601f840112611fb857611fb7611f93565b5b8235905067ffffffffffffffff811115611fd557611fd4611f98565b5b602083019150836001820283011115611ff157611ff0611f9d565b5b9250929050565b60008060008060006080868803121561201457612013611abb565b5b600061202288828901611d11565b955050602061203388828901611d11565b945050604061204488828901611c5c565b935050606086013567ffffffffffffffff81111561206557612064611ac0565b5b61207188828901611fa2565b92509250509295509295909350565b6000806040838503121561209757612096611abb565b5b60006120a585828601611d11565b92505060206120b685828601611d11565b9150509250929050565b7f4e487b7100000000000000000000000000000000000000000000000000000000600052602260045260246000fd5b6000600282049050600182168061210757607f821691505b6020821081141561211b5761211a6120c0565b5b50919050565b7f4e4f545f415554484f52495a4544000000000000000000000000000000000000600082015250565b6000612157600e83611b8b565b915061216282612121565b602082019050919050565b600060208201905081810360008301526121868161214a565b9050919050565b7f4e487b7100000000000000000000000000000000000000000000000000000000600052603260045260246000fd5b7f554e415554484f52495a45440000000000000000000000000000000000000000600082015250565b60006121f2600c83611b8b565b91506121fd826121bc565b602082019050919050565b60006020820190508181036000830152612221816121e5565b9050919050565b7f57524f4e475f46524f4d00000000000000000000000000000000000000000000600082015250565b600061225e600a83611b8b565b915061226982612228565b602082019050919050565b6000602082019050818103600083015261228d81612251565b9050919050565b7f494e56414c49445f524543495049454e54000000000000000000000000000000600082015250565b60006122ca601183611b8b565b91506122d582612294565b602082019050919050565b600060208201905081810360008301526122f9816122bd565b9050919050565b7f4e6f2062616c616e636520746f20776974686472617700000000000000000000600082015250565b6000612336601683611b8b565b915061234182612300565b602082019050919050565b6000602082019050818103600083015261236581612329565b9050919050565b600081905092915050565b50565b600061238760008361236c565b915061239282612377565b600082019050919050565b60006123a88261237a565b9150819050919050565b7f7769746864726177616c206661696c6564000000000000000000000000000000600082015250565b60006123e8601183611b8b565b91506123f3826123b2565b602082019050919050565b60006020820190508181036000830152612417816123db565b9050919050565b600082825260208201905092915050565b600061243c60008361241e565b915061244782612377565b600082019050919050565b60006080820190506124676000830186611cd0565b6124746020830185611cd0565b6124816040830184611d66565b81810360608301526124928161242f565b9050949350505050565b6000815190506124ab81611af1565b92915050565b6000602082840312156124c7576124c6611abb565b5b60006124d58482850161249c565b91505092915050565b7f554e534146455f524543495049454e5400000000000000000000000000000000600082015250565b6000612514601083611b8b565b915061251f826124de565b602082019050919050565b6000602082019050818103600083015261254381612507565b9050919050565b7f4e4f545f4d494e54454400000000000000000000000000000000000000000000600082015250565b6000612580600a83611b8b565b915061258b8261254a565b602082019050919050565b600060208201905081810360008301526125af81612573565b9050919050565b7f5a45524f5f414444524553530000000000000000000000000000000000000000600082015250565b60006125ec600c83611b8b565b91506125f7826125b6565b602082019050919050565b6000602082019050818103600083015261261b816125df565b9050919050565b7f4e6f206d6f726520746f6b656e7320746f206d696e7400000000000000000000600082015250565b6000612658601683611b8b565b915061266382612622565b602082019050919050565b600060208201905081810360008301526126878161264b565b9050919050565b7f4e487b7100000000000000000000000000000000000000000000000000000000600052601160045260246000fd5b60006126c882611c3b565b91506126d383611c3b565b9250817fffffffffffffffffffffffffffffffffffffffffffffffffffffffffffffffff048311821515161561270c5761270b61268e565b5b828202905092915050565b7f46656520697320696e636f727265637400000000000000000000000000000000600082015250565b600061274d601083611b8b565b915061275882612717565b602082019050919050565b6000602082019050818103600083015261277c81612740565b9050919050565b7f43616e2774206d696e74206d6f7265207468616e203500000000000000000000600082015250565b60006127b9601683611b8b565b91506127c482612783565b602082019050919050565b600060208201905081810360008301526127e8816127ac565b9050919050565b7f4e487b7100000000000000000000000000000000000000000000000000000000600052604160045260246000fd5b600061282982611dbd565b915060ff82141561283d5761283c61268e565b5b600182019050919050565b600061285382611c3b565b91507fffffffffffffffffffffffffffffffffffffffffffffffffffffffffffffffff8214156128865761288561268e565b5b600182019050919050565b82818337600083830152505050565b60006128ac838561241e565b93506128b9838584612891565b6128c283611bcf565b840190509392505050565b60006080820190506128e26000830188611cd0565b6128ef6020830187611cd0565b6128fc6040830186611d66565b818103606083015261290f8184866128a0565b90509695505050505050565b7f546f6b656e20646f6573206e6f74206578697374000000000000000000000000600082015250565b6000612951601483611b8b565b915061295c8261291b565b602082019050919050565b6000602082019050818103600083015261298081612944565b9050919050565b600081905092915050565b600061299d82611b80565b6129a78185612987565b93506129b7818560208601611b9c565b80840191505092915050565b60006129cf8285612992565b91506129db8284612992565b91508190509392505050565b7f414c52454144595f4d494e544544000000000000000000000000000000000000600082015250565b6000612a1d600e83611b8b565b9150612a28826129e7565b602082019050919050565b60006020820190508181036000830152612a4c81612a10565b9050919050565b7f4e487b7100000000000000000000000000000000000000000000000000000000600052601260045260246000fd5b6000612a8d82611c3b565b9150612a9883611c3b565b925082612aa857612aa7612a53565b5b828204905092915050565b6000612abe82611c3b565b9150612ac983611c3b565b925082821015612adc57612adb61268e565b5b828203905092915050565b6000612af282611c3b565b9150612afd83611c3b565b925082612b0d57612b0c612a53565b5b828206905092915050565b6000612b2382611c3b565b9150612b2e83611c3b565b9250827fffffffffffffffffffffffffffffffffffffffffffffffffffffffffffffffff03821115612b6357612b6261268e565b5b82820190509291505056fe68747470733a2f2f6261667962656962687169736c696c6f33366b6832626865707a696c7234346867667a706b6e676e66327833746275686f706734716233667568612e697066732e647765622e6c696e6b2f6d657461646174612fa26469706673582212200bfd531e5c6c2a6313b80473843341721f5fcf7c4c2f4fe19a60c0e8f9038eaf64736f6c634300080c0033",
  "devdoc": {
    "kind": "dev",
    "methods": {
      "mint(uint256)": {
        "params": {
          "_quantity": "number of tokens to mint Emits a {Transfer} event."
        }
      },
      "tokenURI(uint256)": {
        "params": {
          "tokenId": "id of the token"
        }
      }
    },
    "version": 1
  },
  "userdoc": {
    "kind": "user",
    "methods": {
      "mint(uint256)": {
        "notice": "Mints tokenId and transfers it to `to`."
      },
      "tokenURI(uint256)": {
        "notice": "returns url of the token"
      }
    },
    "version": 1
  },
  "storageLayout": {
    "storage": [
      {
        "astId": 529,
        "contract": "contracts/Collectible.sol:Collectible",
        "label": "name",
        "offset": 0,
        "slot": "0",
        "type": "t_string_storage"
      },
      {
        "astId": 531,
        "contract": "contracts/Collectible.sol:Collectible",
        "label": "symbol",
        "offset": 0,
        "slot": "1",
        "type": "t_string_storage"
      },
      {
        "astId": 542,
        "contract": "contracts/Collectible.sol:Collectible",
        "label": "_ownerOf",
        "offset": 0,
        "slot": "2",
        "type": "t_mapping(t_uint256,t_address)"
      },
      {
        "astId": 546,
        "contract": "contracts/Collectible.sol:Collectible",
        "label": "_balanceOf",
        "offset": 0,
        "slot": "3",
        "type": "t_mapping(t_address,t_uint256)"
      },
      {
        "astId": 595,
        "contract": "contracts/Collectible.sol:Collectible",
        "label": "getApproved",
        "offset": 0,
        "slot": "4",
        "type": "t_mapping(t_uint256,t_address)"
      },
      {
        "astId": 601,
        "contract": "contracts/Collectible.sol:Collectible",
        "label": "isApprovedForAll",
        "offset": 0,
        "slot": "5",
        "type": "t_mapping(t_address,t_mapping(t_address,t_bool))"
      },
      {
        "astId": 451,
        "contract": "contracts/Collectible.sol:Collectible",
        "label": "owner",
        "offset": 0,
        "slot": "6",
        "type": "t_address"
      },
      {
        "astId": 245,
        "contract": "contracts/Collectible.sol:Collectible",
        "label": "_counter",
        "offset": 20,
        "slot": "6",
        "type": "t_uint8"
      }
    ],
    "types": {
      "t_address": {
        "encoding": "inplace",
        "label": "address",
        "numberOfBytes": "20"
      },
      "t_bool": {
        "encoding": "inplace",
        "label": "bool",
        "numberOfBytes": "1"
      },
      "t_mapping(t_address,t_bool)": {
        "encoding": "mapping",
        "key": "t_address",
        "label": "mapping(address => bool)",
        "numberOfBytes": "32",
        "value": "t_bool"
      },
      "t_mapping(t_address,t_mapping(t_address,t_bool))": {
        "encoding": "mapping",
        "key": "t_address",
        "label": "mapping(address => mapping(address => bool))",
        "numberOfBytes": "32",
        "value": "t_mapping(t_address,t_bool)"
      },
      "t_mapping(t_address,t_uint256)": {
        "encoding": "mapping",
        "key": "t_address",
        "label": "mapping(address => uint256)",
        "numberOfBytes": "32",
        "value": "t_uint256"
      },
      "t_mapping(t_uint256,t_address)": {
        "encoding": "mapping",
        "key": "t_uint256",
        "label": "mapping(uint256 => address)",
        "numberOfBytes": "32",
        "value": "t_address"
      },
      "t_string_storage": {
        "encoding": "bytes",
        "label": "string",
        "numberOfBytes": "32"
      },
      "t_uint256": {
        "encoding": "inplace",
        "label": "uint256",
        "numberOfBytes": "32"
      },
      "t_uint8": {
        "encoding": "inplace",
        "label": "uint8",
        "numberOfBytes": "1"
      }
    }
  }
}